S010000041746D65676133322E7372656360
S11300000C942A000C943C000C943C000C943C008E
S11300100C943C000C943C000C943C000C943C006C
S11300200C943C000C943C000C947B000C94A200B7
S11300300C943C000C943C000C943C000C943C004C
S11300400C943C000C943C000C943C000C943C003C
S11300500C943C0011241FBECFE5D8E0DEBFCDBF19
S113006020E0A0E6B0E001C01D92A736B207E1F798
S11300700E94D2000C94ED000C940000009779F1DA
S11300809093640080936300FC018081882311F0C5
S1130090883019F493B7892B83BFE0916300F09102
S11300A064008381883018F493B7892B83BFE0916F
S11300B06300F09164008181882311F0823019F487
S11300C099B7892B89BFE0916300F0916400828124
S11300D0823038F499B7892B89BF80E0089581E094
S11300E0089581E008958CBF81E0089590936200A3
S11300F08093610008951F920F920FB60F921124FE
S11301002F933F934F935F936F937F938F939F931B
S1130110AF93BF93EF93FF93E0916100F09162007E
S11301200995FF91EF91BF91AF919F918F917F912D
S11301306F915F914F913F912F910F900FBE0F9050
S11301401F9018951F920F920FB60F9211242F93A0
S11301503F934F935F936F937F938F939F93AF934B
S1130160BF93EF93FF93809160008F5F8093600053
S1130170E0916500F09166000995FF91EF91BF91C0
S1130180AF919F918F917F916F915F914F913F912B
S11301902F910F900FBE0F901F9018958BB38095E1
S11301A08BBB0895CF93DF9300D000D0CDB7DEB7DB
S11301B08FEF8ABB78948EEC90E00E94760088E002
S11301C0898382E08A831B828C8380EF0E94730080
S11101D0CE0101960E943E00FFCFF894FFCFAF
S9030000FC
