S023000053657175656E7469616C5F4C4544735F507573685F427574746F6E2E7372656365
S11300000C942A000C943C000C943C000C943C008E
S11300100C943C000C943C000C943C000C943C006C
S11300200C943C000C943C000C943C000C943C005C
S11300300C943C000C943C000C943C000C943C004C
S11300400C943C000C943C000C943C000C943C003C
S11300500C943C0011241FBECFE5D8E0DEBFCDBF19
S113006020E0A0E6B0E001C01D92A236B207E1F79D
S11300700E943E000C9464000C94000084B38E7FB4
S113008084BB8FEF8ABB989BFECF2BB381E090E0BB
S11300900090600002C0880F991F0A94E2F7822B37
S11300A08BBB8091600090916100019690936100F8
S11300B0809360002FE38DE093E0215080409040D6
S10F00C0E1F700C00000DFCFF894FFCF90
S9030000FC
